:04000000BEEF3FF020
:107F7C000001D7EF3FF0016E01C0BEFF1200016E91
:107F8C0001C0CBFF030ECA12BD80BD82BD84BD866D
:107F9C00000ECC6ECA84020EBE6EBD98BD9A94942F
:107FAC001200FF0EC5EC3FF0010EC26E0E0EC16E3C
:107FBC003F0EC06E000E836E000E8C6E0C0E956E16
:107FCC00C2B0EBEF3FF0EDEF3FF0E6EF3FF0C35008
:107FDC00C1EC3FF0C4CFBDFF83A202D0838601D099
:107FEC00839683A002D0838401D08394E6EF3FF084
:047FFC0000EF00F0A2
:020000040020DA
:08000000FFFFFFFFFFFFFFFF00
:020000040030CA
:0E000000000C191EFF0185FF0FC00FE00F401E
:00000001FF
